S00B0000504D572E7372656325
S11300000C942A000C9434000C9434000C943400A6
S11300100C9434000C9434000C9434000C9434008C
S11300200C9434000C9434000C9434000C9434007C
S11300300C9434000C9434000C9434000C9434006C
S11300400C9434000C9434000C9434000C9434005C
S11300500C94340011241FBECFE5D4E0DEBFCDBF25
S11300600E943A000C9453000C94000089E685BD6C
S11300708F9A08950E94360090E0892F83BDE3ECA7
S1130080F9E03197F1F700C000008F5F8F3FB1F7BF
S113009083BDE3ECF9E03197F1F700C00000815033
S10D00A08130B1F7EACFF894FFCFE6
S9030000FC
